{
  "contractName": "TokenWhale",
  "abi": [
    {
      "constant": true,
      "inputs": [],
      "name": "name",
      "outputs": [
        {
          "name": "",
          "type": "string"
        }
      ],
      "payable": false,
      "stateMutability": "view",
      "type": "function"
    },
    {
      "constant": true,
      "inputs": [],
      "name": "totalSupply",
      "outputs": [
        {
          "name": "",
          "type": "uint256"
        }
      ],
      "payable": false,
      "stateMutability": "view",
      "type": "function"
    },
    {
      "constant": true,
      "inputs": [],
      "name": "decimals",
      "outputs": [
        {
          "name": "",
          "type": "uint8"
        }
      ],
      "payable": false,
      "stateMutability": "view",
      "type": "function"
    },
    {
      "constant": true,
      "inputs": [
        {
          "name": "",
          "type": "address"
        }
      ],
      "name": "balanceOf",
      "outputs": [
        {
          "name": "",
          "type": "uint256"
        }
      ],
      "payable": false,
      "stateMutability": "view",
      "type": "function"
    },
    {
      "constant": true,
      "inputs": [],
      "name": "symbol",
      "outputs": [
        {
          "name": "",
          "type": "string"
        }
      ],
      "payable": false,
      "stateMutability": "view",
      "type": "function"
    },
    {
      "constant": true,
      "inputs": [
        {
          "name": "",
          "type": "address"
        },
        {
          "name": "",
          "type": "address"
        }
      ],
      "name": "allowance",
      "outputs": [
        {
          "name": "",
          "type": "uint256"
        }
      ],
      "payable": false,
      "stateMutability": "view",
      "type": "function"
    },
    {
      "inputs": [
        {
          "name": "_player",
          "type": "address"
        }
      ],
      "payable": false,
      "stateMutability": "nonpayable",
      "type": "constructor"
    },
    {
      "anonymous": false,
      "inputs": [
        {
          "indexed": true,
          "name": "from",
          "type": "address"
        },
        {
          "indexed": true,
          "name": "to",
          "type": "address"
        },
        {
          "indexed": false,
          "name": "value",
          "type": "uint256"
        }
      ],
      "name": "Transfer",
      "type": "event"
    },
    {
      "anonymous": false,
      "inputs": [
        {
          "indexed": true,
          "name": "owner",
          "type": "address"
        },
        {
          "indexed": true,
          "name": "spender",
          "type": "address"
        },
        {
          "indexed": false,
          "name": "value",
          "type": "uint256"
        }
      ],
      "name": "Approval",
      "type": "event"
    },
    {
      "constant": true,
      "inputs": [],
      "name": "isComplete",
      "outputs": [
        {
          "name": "",
          "type": "bool"
        }
      ],
      "payable": false,
      "stateMutability": "view",
      "type": "function"
    },
    {
      "constant": false,
      "inputs": [
        {
          "name": "to",
          "type": "address"
        },
        {
          "name": "value",
          "type": "uint256"
        }
      ],
      "name": "transfer",
      "outputs": [],
      "payable": false,
      "stateMutability": "nonpayable",
      "type": "function"
    },
    {
      "constant": false,
      "inputs": [
        {
          "name": "spender",
          "type": "address"
        },
        {
          "name": "value",
          "type": "uint256"
        }
      ],
      "name": "approve",
      "outputs": [],
      "payable": false,
      "stateMutability": "nonpayable",
      "type": "function"
    },
    {
      "constant": false,
      "inputs": [
        {
          "name": "from",
          "type": "address"
        },
        {
          "name": "to",
          "type": "address"
        },
        {
          "name": "value",
          "type": "uint256"
        }
      ],
      "name": "transferFrom",
      "outputs": [],
      "payable": false,
      "stateMutability": "nonpayable",
      "type": "function"
    }
  ],
  "bytecode": "0x60806040526040805190810160405280601281526020017f53696d706c6520455243323020546f6b656e00000000000000000000000000008152506004908051906020019061004f92919061019d565b506040805190810160405280600381526020017f53455400000000000000000000000000000000000000000000000000000000008152506005908051906020019061009b92919061019d565b506012600660006101000a81548160ff021916908360ff1602179055503480156100c457600080fd5b50604051602080610d7f83398101806040528101908080519060200190929190505050806000806101000a81548173ffffffffffffffffffffffffffffffffffffffff021916908373ffffffffffffffffffffffffffffffffffffffff1602179055506103e86001819055506103e8600260008060009054906101000a900473ffffffffffffffffffffffffffffffffffffffff1673ffffffffffffffffffffffffffffffffffffffff1673ffffffffffffffffffffffffffffffffffffffff1681526020019081526020016000208190555050610242565b828054600181600116156101000203166002900490600052602060002090601f016020900481019282601f106101de57805160ff191683800117855561020c565b8280016001018555821561020c579182015b8281111561020b5782518255916020019190600101906101f0565b5b509050610219919061021d565b5090565b61023f91905b8082111561023b576000816000905550600101610223565b5090565b90565b610b2e806102516000396000f3006080604052600436106100a4576000357c0100000000000000000000000000000000000000000000000000000000900463ffffffff16806306fdde03146100a9578063095ea7b31461013957806318160ddd1461018657806323b872dd146101b1578063313ce5671461021e57806370a082311461024f57806395d89b41146102a6578063a9059cbb14610336578063b2fa1c9e14610383578063dd62ed3e146103b2575b600080fd5b3480156100b557600080fd5b506100be610429565b6040518080602001828103825283818151815260200191508051906020019080838360005b838110156100fe5780820151818401526020810190506100e3565b50505050905090810190601f16801561012b5780820380516001836020036101000a031916815260200191505b509250505060405180910390f35b34801561014557600080fd5b50610184600480360381019080803573ffffffffffffffffffffffffffffffffffffffff169060200190929190803590602001909291905050506104c7565b005b34801561019257600080fd5b5061019b6105b1565b6040518082815260200191505060405180910390f35b3480156101bd57600080fd5b5061021c600480360381019080803573ffffffffffffffffffffffffffffffffffffffff169060200190929190803573ffffffffffffffffffffffffffffffffffffffff169060200190929190803590602001909291905050506105b7565b005b34801561022a57600080fd5b506102336107b8565b604051808260ff1660ff16815260200191505060405180910390f35b34801561025b57600080fd5b50610290600480360381019080803573ffffffffffffffffffffffffffffffffffffffff1690602001909291905050506107cb565b6040518082815260200191505060405180910390f35b3480156102b257600080fd5b506102bb6107e3565b6040518080602001828103825283818151815260200191508051906020019080838360005b838110156102fb5780820151818401526020810190506102e0565b50505050905090810190601f1680156103285780820380516001836020036101000a031916815260200191505b509250505060405180910390f35b34801561034257600080fd5b50610381600480360381019080803573ffffffffffffffffffffffffffffffffffffffff16906020019092919080359060200190929190505050610881565b005b34801561038f57600080fd5b5061039861096c565b604051808215151515815260200191505060405180910390f35b3480156103be57600080fd5b50610413600480360381019080803573ffffffffffffffffffffffffffffffffffffffff169060200190929190803573ffffffffffffffffffffffffffffffffffffffff1690602001909291905050506109da565b6040518082815260200191505060405180910390f35b60048054600181600116156101000203166002900480601f0160208091040260200160405190810160405280929190818152602001828054600181600116156101000203166002900480156104bf5780601f10610494576101008083540402835291602001916104bf565b820191906000526020600020905b8154815290600101906020018083116104a257829003601f168201915b505050505081565b80600360003373ffffffffffffffffffffffffffffffffffffffff1673ffffffffffffffffffffffffffffffffffffffff16815260200190815260200160002060008473ffffffffffffffffffffffffffffffffffffffff1673ffffffffffffffffffffffffffffffffffffffff168152602001908152602001600020819055508173ffffffffffffffffffffffffffffffffffffffff163373ffffffffffffffffffffffffffffffffffffffff167f8c5be1e5ebec7d5bd14f71427d1e84f3dd0314c0f7b2291e5b200ac8c7c3b925836040518082815260200191505060405180910390a35050565b60015481565b80600260008573ffffffffffffffffffffffffffffffffffffffff1673ffffffffffffffffffffffffffffffffffffffff168152602001908152602001600020541015151561060557600080fd5b600260008373ffffffffffffffffffffffffffffffffffffffff1673ffffffffffffffffffffffffffffffffffffffff1681526020019081526020016000205481600260008573ffffffffffffffffffffffffffffffffffffffff1673ffffffffffffffffffffffffffffffffffffffff16815260200190815260200160002054011015151561069457600080fd5b80600360008573ffffffffffffffffffffffffffffffffffffffff1673ffffffffffffffffffffffffffffffffffffffff16815260200190815260200160002060003373ffffffffffffffffffffffffffffffffffffffff1673ffffffffffffffffffffffffffffffffffffffff168152602001908152602001600020541015151561071f57600080fd5b80600360008573ffffffffffffffffffffffffffffffffffffffff1673ffffffffffffffffffffffffffffffffffffffff16815260200190815260200160002060003373ffffffffffffffffffffffffffffffffffffffff1673ffffffffffffffffffffffffffffffffffffffff168152602001908152602001600020600082825403925050819055506107b382826109ff565b505050565b600660009054906101000a900460ff1681565b60026020528060005260406000206000915090505481565b60058054600181600116156101000203166002900480601f0160208091040260200160405190810160405280929190818152602001828054600181600116156101000203166002900480156108795780601f1061084e57610100808354040283529160200191610879565b820191906000526020600020905b81548152906001019060200180831161085c57829003601f168201915b505050505081565b80600260003373ffffffffffffffffffffffffffffffffffffffff1673ffffffffffffffffffffffffffffffffffffffff16815260200190815260200160002054101515156108cf57600080fd5b600260008373ffffffffffffffffffffffffffffffffffffffff1673ffffffffffffffffffffffffffffffffffffffff1681526020019081526020016000205481600260008573ffffffffffffffffffffffffffffffffffffffff1673ffffffffffffffffffffffffffffffffffffffff16815260200190815260200160002054011015151561095e57600080fd5b61096882826109ff565b5050565b6000620f4240600260008060009054906101000a900473ffffffffffffffffffffffffffffffffffffffff1673ffffffffffffffffffffffffffffffffffffffff1673ffffffffffffffffffffffffffffffffffffffff168152602001908152602001600020541015905090565b6003602052816000526040600020602052806000526040600020600091509150505481565b80600260003373ffffffffffffffffffffffffffffffffffffffff1673ffffffffffffffffffffffffffffffffffffffff1681526020019081526020016000206000828254039250508190555080600260008473ffffffffffffffffffffffffffffffffffffffff1673ffffffffffffffffffffffffffffffffffffffff168152602001908152602001600020600082825401925050819055508173ffffffffffffffffffffffffffffffffffffffff163373ffffffffffffffffffffffffffffffffffffffff167fddf252ad1be2c89b69c2b068fc378daa952ba7f163c4a11628f55a4df523b3ef836040518082815260200191505060405180910390a350505600a165627a7a72305820fbcd04d13e7d709ef71c76c3965ceab9702a2efea9a8b502493e354d9433386c0029",
  "source": "pragma solidity ^0.4.21;\n\ncontract TokenWhale {\n    address player;\n\n    uint256 public totalSupply;\n    mapping(address => uint256) public balanceOf;\n    mapping(address => mapping(address => uint256)) public allowance;\n\n    string public name = \"Simple ERC20 Token\";\n    string public symbol = \"SET\";\n    uint8 public decimals = 18;\n\n    function TokenWhale(address _player) public {\n        player = _player;\n        totalSupply = 1000;\n        balanceOf[player] = 1000;\n    }\n\n    function isComplete() public view returns (bool) {\n        return balanceOf[player] >= 1000000;\n    }\n\n    event Transfer(address indexed from, address indexed to, uint256 value);\n\n    function _transfer(address to, uint256 value) internal {\n        balanceOf[msg.sender] -= value;\n        balanceOf[to] += value;\n\n        emit Transfer(msg.sender, to, value);\n    }\n\n    function transfer(address to, uint256 value) public {\n        require(balanceOf[msg.sender] >= value);\n        require(balanceOf[to] + value >= balanceOf[to]);\n\n        _transfer(to, value);\n    }\n\n    event Approval(address indexed owner, address indexed spender, uint256 value);\n\n    function approve(address spender, uint256 value) public {\n        allowance[msg.sender][spender] = value;\n        emit Approval(msg.sender, spender, value);\n    }\n\n    function transferFrom(address from, address to, uint256 value) public {\n        require(balanceOf[from] >= value);\n        require(balanceOf[to] + value >= balanceOf[to]);\n        require(allowance[from][msg.sender] >= value);\n\n        allowance[from][msg.sender] -= value;\n        _transfer(to, value);\n    }\n}",
  "sourcePath": "/Users/bernhardmueller/Projects/devcon4-exercises/exercise2/contracts/TokenWhale.sol",
  "compiler": {
    "name": "solc",
    "version": "0.4.25+commit.59dbf8f1.Emscripten.clang"
  },
  "schemaVersion": "3.0.0-beta.1",
  "updatedAt": "2018-10-28T04:37:25.191Z"
}