{
  "contractName": "TokenSale",
  "abi": [
    {
      "constant": true,
      "inputs": [
        {
          "name": "",
          "type": "address"
        }
      ],
      "name": "balanceOf",
      "outputs": [
        {
          "name": "",
          "type": "uint256"
        }
      ],
      "payable": false,
      "stateMutability": "view",
      "type": "function"
    },
    {
      "inputs": [
        {
          "name": "_player",
          "type": "address"
        }
      ],
      "payable": true,
      "stateMutability": "payable",
      "type": "constructor"
    },
    {
      "constant": true,
      "inputs": [],
      "name": "isComplete",
      "outputs": [
        {
          "name": "",
          "type": "bool"
        }
      ],
      "payable": false,
      "stateMutability": "view",
      "type": "function"
    },
    {
      "constant": false,
      "inputs": [
        {
          "name": "numTokens",
          "type": "uint256"
        }
      ],
      "name": "buy",
      "outputs": [],
      "payable": true,
      "stateMutability": "payable",
      "type": "function"
    },
    {
      "constant": false,
      "inputs": [
        {
          "name": "numTokens",
          "type": "uint256"
        }
      ],
      "name": "sell",
      "outputs": [],
      "payable": false,
      "stateMutability": "nonpayable",
      "type": "function"
    }
  ],
  "bytecode": "0x608060405260405160208061034783398101806040528101908080519060200190929190505050670de0b6b3a76400003414151561003c57600080fd5b506102fb8061004c6000396000f300608060405260043610610062576000357c0100000000000000000000000000000000000000000000000000000000900463ffffffff16806370a0823114610067578063b2fa1c9e146100be578063d96a094a146100ed578063e4849b321461010d575b600080fd5b34801561007357600080fd5b506100a8600480360381019080803573ffffffffffffffffffffffffffffffffffffffff16906020019092919050505061013a565b6040518082815260200191505060405180910390f35b3480156100ca57600080fd5b506100d3610152565b604051808215151515815260200191505060405180910390f35b61010b6004803603810190808035906020019092919050505061017b565b005b34801561011957600080fd5b50610138600480360381019080803590602001909291905050506101e2565b005b60006020528060005260406000206000915090505481565b6000670de0b6b3a76400003073ffffffffffffffffffffffffffffffffffffffff163110905090565b670de0b6b3a764000081023414151561019357600080fd5b806000803373ffffffffffffffffffffffffffffffffffffffff1673ffffffffffffffffffffffffffffffffffffffff1681526020019081526020016000206000828254019250508190555050565b806000803373ffffffffffffffffffffffffffffffffffffffff1673ffffffffffffffffffffffffffffffffffffffff168152602001908152602001600020541015151561022f57600080fd5b806000803373ffffffffffffffffffffffffffffffffffffffff1673ffffffffffffffffffffffffffffffffffffffff168152602001908152602001600020600082825403925050819055503373ffffffffffffffffffffffffffffffffffffffff166108fc670de0b6b3a764000083029081150290604051600060405180830381858888f193505050501580156102cb573d6000803e3d6000fd5b50505600a165627a7a72305820b5db703481dd99272c97b7f060dbc8a10fa7c9279dc32c372cd7ddb9264d7ab50029",
  "source": "pragma solidity ^0.4.21;\n\ncontract TokenSale {\n    mapping(address => uint256) public balanceOf;\n    uint256 constant PRICE_PER_TOKEN = 1 ether;\n\n    function TokenSale(address _player) public payable {\n        require(msg.value == 1 ether);\n    }\n\n    function isComplete() public view returns (bool) {\n        return address(this).balance < 1 ether;\n    }\n\n    function buy(uint256 numTokens) public payable {\n        require(msg.value == numTokens * PRICE_PER_TOKEN);\n\n        balanceOf[msg.sender] += numTokens;\n    }\n\n    function sell(uint256 numTokens) public {\n        require(balanceOf[msg.sender] >= numTokens);\n\n        balanceOf[msg.sender] -= numTokens;\n        msg.sender.transfer(numTokens * PRICE_PER_TOKEN);\n    }\n}",
  "sourcePath": "/Users/bernhardmueller/Projects/devcon4-exercises/exercise1/contracts/Tokensale.sol",
  "compiler": {
    "name": "solc",
    "version": "0.4.24+commit.e67f0147.Emscripten.clang"
  },
  "schemaVersion": "2.0.1",
  "updatedAt": "2018-10-28T04:29:01.460Z"
}